{
  "_format": "hh-sol-artifact-1",
  "contractName": "Agify",
  "sourceName": "contracts/Contract.sol",
  "abi": [
    {
      "inputs": [],
      "stateMutability": "nonpayable",
      "type": "constructor"
    },
    {
      "inputs": [
        {
          "internalType": "string",
          "name": "_hname",
          "type": "string"
        },
        {
          "internalType": "string",
          "name": "_img",
          "type": "string"
        },
        {
          "internalType": "string",
          "name": "_hid",
          "type": "string"
        },
        {
          "internalType": "address",
          "name": "_haddress",
          "type": "address"
        }
      ],
      "name": "addHospitalRequest",
      "outputs": [],
      "stateMutability": "nonpayable",
      "type": "function"
    },
    {
      "inputs": [
        {
          "internalType": "string",
          "name": "_hospitalId",
          "type": "string"
        },
        {
          "internalType": "address",
          "name": "_authorizedAddress",
          "type": "address"
        },
        {
          "internalType": "address",
          "name": "_oaddress",
          "type": "address"
        }
      ],
      "name": "allowHospital",
      "outputs": [],
      "stateMutability": "nonpayable",
      "type": "function"
    },
    {
      "inputs": [
        {
          "internalType": "address",
          "name": "",
          "type": "address"
        }
      ],
      "name": "authorizedAddress",
      "outputs": [
        {
          "internalType": "bool",
          "name": "",
          "type": "bool"
        }
      ],
      "stateMutability": "view",
      "type": "function"
    },
    {
      "inputs": [
        {
          "internalType": "address",
          "name": "hid",
          "type": "address"
        }
      ],
      "name": "checkHospital",
      "outputs": [
        {
          "internalType": "bool",
          "name": "",
          "type": "bool"
        }
      ],
      "stateMutability": "view",
      "type": "function"
    },
    {
      "inputs": [
        {
          "internalType": "address",
          "name": "oid",
          "type": "address"
        }
      ],
      "name": "checkOwner",
      "outputs": [
        {
          "internalType": "bool",
          "name": "",
          "type": "bool"
        }
      ],
      "stateMutability": "view",
      "type": "function"
    },
    {
      "inputs": [
        {
          "internalType": "string",
          "name": "bid",
          "type": "string"
        }
      ],
      "name": "checkRegistration",
      "outputs": [
        {
          "internalType": "bool",
          "name": "",
          "type": "bool"
        }
      ],
      "stateMutability": "view",
      "type": "function"
    },
    {
      "inputs": [
        {
          "internalType": "string",
          "name": "_hid",
          "type": "string"
        },
        {
          "internalType": "address",
          "name": "_haddress",
          "type": "address"
        },
        {
          "internalType": "address",
          "name": "_oaddress",
          "type": "address"
        }
      ],
      "name": "deletePendingRequest",
      "outputs": [],
      "stateMutability": "nonpayable",
      "type": "function"
    },
    {
      "inputs": [
        {
          "internalType": "string",
          "name": "_name",
          "type": "string"
        },
        {
          "internalType": "string",
          "name": "_sex",
          "type": "string"
        },
        {
          "internalType": "string",
          "name": "_time",
          "type": "string"
        },
        {
          "internalType": "string",
          "name": "_hname",
          "type": "string"
        },
        {
          "internalType": "string",
          "name": "_id",
          "type": "string"
        },
        {
          "internalType": "string",
          "name": "_fname",
          "type": "string"
        },
        {
          "internalType": "string",
          "name": "_mname",
          "type": "string"
        },
        {
          "internalType": "string",
          "name": "_dob",
          "type": "string"
        },
        {
          "internalType": "string",
          "name": "_place",
          "type": "string"
        },
        {
          "internalType": "address",
          "name": "_add",
          "type": "address"
        }
      ],
      "name": "enterData",
      "outputs": [],
      "stateMutability": "nonpayable",
      "type": "function"
    },
    {
      "inputs": [
        {
          "internalType": "string",
          "name": "_id",
          "type": "string"
        }
      ],
      "name": "getData",
      "outputs": [
        {
          "components": [
            {
              "internalType": "string",
              "name": "name",
              "type": "string"
            },
            {
              "internalType": "string",
              "name": "sex",
              "type": "string"
            },
            {
              "internalType": "string",
              "name": "time",
              "type": "string"
            },
            {
              "internalType": "string",
              "name": "hname",
              "type": "string"
            },
            {
              "internalType": "string",
              "name": "id",
              "type": "string"
            },
            {
              "internalType": "string",
              "name": "fname",
              "type": "string"
            },
            {
              "internalType": "string",
              "name": "mname",
              "type": "string"
            },
            {
              "internalType": "string",
              "name": "dob",
              "type": "string"
            },
            {
              "internalType": "string",
              "name": "place",
              "type": "string"
            }
          ],
          "internalType": "struct Agify.User",
          "name": "",
          "type": "tuple"
        }
      ],
      "stateMutability": "view",
      "type": "function"
    },
    {
      "inputs": [
        {
          "internalType": "address",
          "name": "_oaddress",
          "type": "address"
        }
      ],
      "name": "getPendingRequest",
      "outputs": [
        {
          "components": [
            {
              "internalType": "string",
              "name": "hname",
              "type": "string"
            },
            {
              "internalType": "string",
              "name": "img",
              "type": "string"
            },
            {
              "internalType": "string",
              "name": "hid",
              "type": "string"
            },
            {
              "internalType": "address",
              "name": "haddress",
              "type": "address"
            }
          ],
          "internalType": "struct Agify.pendingRequest[]",
          "name": "",
          "type": "tuple[]"
        }
      ],
      "stateMutability": "view",
      "type": "function"
    },
    {
      "inputs": [
        {
          "internalType": "string",
          "name": "",
          "type": "string"
        }
      ],
      "name": "hospitalIdStatus",
      "outputs": [
        {
          "internalType": "bool",
          "name": "",
          "type": "bool"
        }
      ],
      "stateMutability": "view",
      "type": "function"
    },
    {
      "inputs": [],
      "name": "owner",
      "outputs": [
        {
          "internalType": "address",
          "name": "",
          "type": "address"
        }
      ],
      "stateMutability": "view",
      "type": "function"
    },
    {
      "inputs": [
        {
          "internalType": "string",
          "name": "",
          "type": "string"
        }
      ],
      "name": "userStatus",
      "outputs": [
        {
          "internalType": "bool",
          "name": "",
          "type": "bool"
        }
      ],
      "stateMutability": "view",
      "type": "function"
    },
    {
      "inputs": [
        {
          "internalType": "string",
          "name": "",
          "type": "string"
        }
      ],
      "name": "users",
      "outputs": [
        {
          "internalType": "string",
          "name": "name",
          "type": "string"
        },
        {
          "internalType": "string",
          "name": "sex",
          "type": "string"
        },
        {
          "internalType": "string",
          "name": "time",
          "type": "string"
        },
        {
          "internalType": "string",
          "name": "hname",
          "type": "string"
        },
        {
          "internalType": "string",
          "name": "id",
          "type": "string"
        },
        {
          "internalType": "string",
          "name": "fname",
          "type": "string"
        },
        {
          "internalType": "string",
          "name": "mname",
          "type": "string"
        },
        {
          "internalType": "string",
          "name": "dob",
          "type": "string"
        },
        {
          "internalType": "string",
          "name": "place",
          "type": "string"
        }
      ],
      "stateMutability": "view",
      "type": "function"
    }
  ],
  "bytecode": "0x608060405234801561001057600080fd5b50600080546001600160a01b031916331790556120aa806100326000396000f3fe608060405234801561001057600080fd5b50600436106100ea5760003560e01c8063958e8f2f1161008c578063bb082bb811610066578063bb082bb81461026a578063bf880cba1461027d578063e0e3671c14610290578063e1313787146102b257600080fd5b8063958e8f2f14610209578063ae55c8881461021c578063baf5484c1461023c57600080fd5b8063689e1c03116100c8578063689e1c0314610181578063817697b1146101a957806385d7ccdb146101c95780638da5cb5b146101de57600080fd5b806307316e70146100ef5780633638104a14610130578063612a71b314610153575b600080fd5b61011b6100fd366004611881565b6001600160a01b031660009081526005602052604090205460ff1690565b60405190151581526020015b60405180910390f35b61011b61013e366004611881565b60056020526000908152604090205460ff1681565b61011b610161366004611946565b805160208183018101805160038252928201919093012091525460ff1681565b61019461018f366004611946565b6102c5565b604051610127999897969594939291906119db565b6101bc6101b7366004611881565b6107de565b6040516101279190611aa0565b6101dc6101d7366004611b55565b610a42565b005b6000546101f1906001600160a01b031681565b6040516001600160a01b039091168152602001610127565b6101dc610217366004611bee565b610bb0565b61022f61022a366004611946565b610e48565b6040516101279190611d65565b61011b61024a366004611946565b805160208183018101805160048252928201919093012091525460ff1681565b6101dc610278366004611e78565b6113ea565b6101dc61028b366004611e78565b611634565b61011b61029e366004611881565b6000546001600160a01b0390811691161490565b61011b6102c0366004611946565b6116e9565b80516020818301810180516002825292820191909301209152805481906102eb90611ed6565b80601f016020809104026020016040519081016040528092919081815260200182805461031790611ed6565b80156103645780601f1061033957610100808354040283529160200191610364565b820191906000526020600020905b81548152906001019060200180831161034757829003601f168201915b50505050509080600101805461037990611ed6565b80601f01602080910402602001604051908101604052809291908181526020018280546103a590611ed6565b80156103f25780601f106103c7576101008083540402835291602001916103f2565b820191906000526020600020905b8154815290600101906020018083116103d557829003601f168201915b50505050509080600201805461040790611ed6565b80601f016020809104026020016040519081016040528092919081815260200182805461043390611ed6565b80156104805780601f1061045557610100808354040283529160200191610480565b820191906000526020600020905b81548152906001019060200180831161046357829003601f168201915b50505050509080600301805461049590611ed6565b80601f01602080910402602001604051908101604052809291908181526020018280546104c190611ed6565b801561050e5780601f106104e35761010080835404028352916020019161050e565b820191906000526020600020905b8154815290600101906020018083116104f157829003601f168201915b50505050509080600401805461052390611ed6565b80601f016020809104026020016040519081016040528092919081815260200182805461054f90611ed6565b801561059c5780601f106105715761010080835404028352916020019161059c565b820191906000526020600020905b81548152906001019060200180831161057f57829003601f168201915b5050505050908060050180546105b190611ed6565b80601f01602080910402602001604051908101604052809291908181526020018280546105dd90611ed6565b801561062a5780601f106105ff5761010080835404028352916020019161062a565b820191906000526020600020905b81548152906001019060200180831161060d57829003601f168201915b50505050509080600601805461063f90611ed6565b80601f016020809104026020016040519081016040528092919081815260200182805461066b90611ed6565b80156106b85780601f1061068d576101008083540402835291602001916106b8565b820191906000526020600020905b81548152906001019060200180831161069b57829003601f168201915b5050505050908060070180546106cd90611ed6565b80601f01602080910402602001604051908101604052809291908181526020018280546106f990611ed6565b80156107465780601f1061071b57610100808354040283529160200191610746565b820191906000526020600020905b81548152906001019060200180831161072957829003601f168201915b50505050509080600801805461075b90611ed6565b80601f016020809104026020016040519081016040528092919081815260200182805461078790611ed6565b80156107d45780601f106107a9576101008083540402835291602001916107d4565b820191906000526020600020905b8154815290600101906020018083116107b757829003601f168201915b5050505050905089565b6000546060906001600160a01b038381169116146108175760405162461bcd60e51b815260040161080e90611f11565b60405180910390fd5b6001805480602002602001604051908101604052809291908181526020016000905b82821015610a37578382906000526020600020906004020160405180608001604052908160008201805461086c90611ed6565b80601f016020809104026020016040519081016040528092919081815260200182805461089890611ed6565b80156108e55780601f106108ba576101008083540402835291602001916108e5565b820191906000526020600020905b8154815290600101906020018083116108c857829003601f168201915b505050505081526020016001820180546108fe90611ed6565b80601f016020809104026020016040519081016040528092919081815260200182805461092a90611ed6565b80156109775780601f1061094c57610100808354040283529160200191610977565b820191906000526020600020905b81548152906001019060200180831161095a57829003601f168201915b5050505050815260200160028201805461099090611ed6565b80601f01602080910402602001604051908101604052809291908181526020018280546109bc90611ed6565b8015610a095780601f106109de57610100808354040283529160200191610a09565b820191906000526020600020905b8154815290600101906020018083116109ec57829003601f168201915b5050509183525050600391909101546001600160a01b03166020918201529082526001929092019101610839565b505050509050919050565b600482604051610a529190611f48565b9081526040519081900360200190205460ff16158015610a8b57506001600160a01b03811660009081526005602052604090205460ff16155b610ad75760405162461bcd60e51b815260206004820152601b60248201527f486f73706974616c20616c726561647920686173206163636573730000000000604482015260640161080e565b6040805160808101825285815260208082018690529181018490526001600160a01b038316606082015260018054808201825560009190915281518051929360049092027fb10e2d527612073b26eecdfd717e6a320cf44b4afac2b0732d9fcbe2b7fa0cf60192610b4b9284920190611714565b506020828101518051610b649260018501920190611714565b5060408201518051610b80916002840191602090910190611714565b5060609190910151600390910180546001600160a01b0319166001600160a01b0390921691909117905550505050565b6001600160a01b038116600090815260056020526040902054819060ff161515600114610c2d5760405162461bcd60e51b815260206004820152602560248201527f4f6e6c7920617574686f72697a656420616464726573732063616e2073746f7260448201526432902227a160d91b606482015260840161080e565b86600381604051610c3e9190611f48565b9081526040519081900360200190205460ff1615610cac5760405162461bcd60e51b815260206004820152602560248201527f446174612068617320616c7265616479206265656e2073657420666f722074686044820152641a5cc8125160da1b606482015260840161080e565b6040518061012001604052808d81526020018c81526020018b81526020018a815260200189815260200188815260200187815260200186815260200185815250600289604051610cfc9190611f48565b90815260200160405180910390206000820151816000019080519060200190610d26929190611714565b506020828101518051610d3f9260018501920190611714565b5060408201518051610d5b916002840191602090910190611714565b5060608201518051610d77916003840191602090910190611714565b5060808201518051610d93916004840191602090910190611714565b5060a08201518051610daf916005840191602090910190611714565b5060c08201518051610dcb916006840191602090910190611714565b5060e08201518051610de7916007840191602090910190611714565b506101008201518051610e04916008840191602090910190611714565b509050506001600389604051610e1a9190611f48565b908152604051908190036020019020805491151560ff19909216919091179055505050505050505050505050565b610e976040518061012001604052806060815260200160608152602001606081526020016060815260200160608152602001606081526020016060815260200160608152602001606081525090565b600282604051610ea79190611f48565b908152602001604051809103902060405180610120016040529081600082018054610ed190611ed6565b80601f0160208091040260200160405190810160405280929190818152602001828054610efd90611ed6565b8015610f4a5780601f10610f1f57610100808354040283529160200191610f4a565b820191906000526020600020905b815481529060010190602001808311610f2d57829003601f168201915b50505050508152602001600182018054610f6390611ed6565b80601f0160208091040260200160405190810160405280929190818152602001828054610f8f90611ed6565b8015610fdc5780601f10610fb157610100808354040283529160200191610fdc565b820191906000526020600020905b815481529060010190602001808311610fbf57829003601f168201915b50505050508152602001600282018054610ff590611ed6565b80601f016020809104026020016040519081016040528092919081815260200182805461102190611ed6565b801561106e5780601f106110435761010080835404028352916020019161106e565b820191906000526020600020905b81548152906001019060200180831161105157829003601f168201915b5050505050815260200160038201805461108790611ed6565b80601f01602080910402602001604051908101604052809291908181526020018280546110b390611ed6565b80156111005780601f106110d557610100808354040283529160200191611100565b820191906000526020600020905b8154815290600101906020018083116110e357829003601f168201915b5050505050815260200160048201805461111990611ed6565b80601f016020809104026020016040519081016040528092919081815260200182805461114590611ed6565b80156111925780601f1061116757610100808354040283529160200191611192565b820191906000526020600020905b81548152906001019060200180831161117557829003601f168201915b505050505081526020016005820180546111ab90611ed6565b80601f01602080910402602001604051908101604052809291908181526020018280546111d790611ed6565b80156112245780601f106111f957610100808354040283529160200191611224565b820191906000526020600020905b81548152906001019060200180831161120757829003601f168201915b5050505050815260200160068201805461123d90611ed6565b80601f016020809104026020016040519081016040528092919081815260200182805461126990611ed6565b80156112b65780601f1061128b576101008083540402835291602001916112b6565b820191906000526020600020905b81548152906001019060200180831161129957829003601f168201915b505050505081526020016007820180546112cf90611ed6565b80601f01602080910402602001604051908101604052809291908181526020018280546112fb90611ed6565b80156113485780601f1061131d57610100808354040283529160200191611348565b820191906000526020600020905b81548152906001019060200180831161132b57829003601f168201915b5050505050815260200160088201805461136190611ed6565b80601f016020809104026020016040519081016040528092919081815260200182805461138d90611ed6565b80156113da5780601f106113af576101008083540402835291602001916113da565b820191906000526020600020905b8154815290600101906020018083116113bd57829003601f168201915b5050505050815250509050919050565b60005481906001600160a01b038083169116146114195760405162461bcd60e51b815260040161080e90611f11565b60005b60015481101561162c57846040516020016114379190611f48565b604051602081830303815290604052805190602001206001828154811061146057611460611f64565b90600052602060002090600402016002016040516020016114819190611f7a565b604051602081830303815290604052805190602001201480156114db5750836001600160a01b0316600182815481106114bc576114bc611f64565b60009182526020909120600360049092020101546001600160a01b0316145b1561161a57600180546114ef90829061202c565b815481106114ff576114ff611f64565b90600052602060002090600402016001828154811061152057611520611f64565b9060005260206000209060040201600082018160000190805461154290611ed6565b61154d929190611798565b50600182018160010190805461156290611ed6565b61156d929190611798565b50600282018160020190805461158290611ed6565b61158d929190611798565b50600391820154910180546001600160a01b0319166001600160a01b0390921691909117905560018054806115c4576115c4612043565b600082815260208120600019909201916004830201906115e48282611813565b6115f2600183016000611813565b611600600283016000611813565b5060030180546001600160a01b031916905590555061162e565b8061162481612059565b91505061141c565b505b50505050565b60005481906001600160a01b038083169116146116635760405162461bcd60e51b815260040161080e90611f11565b6004846040516116739190611f48565b9081526040519081900360200190205460ff166116de57600160048560405161169c9190611f48565b90815260408051918290036020908101909220805493151560ff199485161790556001600160a01b038616600090815260059092529020805490911660011790555b61162e8484846113ea565b60006003826040516116fb9190611f48565b9081526040519081900360200190205460ff1692915050565b82805461172090611ed6565b90600052602060002090601f0160209004810192826117425760008555611788565b82601f1061175b57805160ff1916838001178555611788565b82800160010185558215611788579182015b8281111561178857825182559160200191906001019061176d565b50611794929150611850565b5090565b8280546117a490611ed6565b90600052602060002090601f0160209004810192826117c65760008555611788565b82601f106117d75780548555611788565b8280016001018555821561178857600052602060002091601f016020900482015b828111156117885782548255916001019190600101906117f8565b50805461181f90611ed6565b6000825580601f1061182f575050565b601f01602090049060005260206000209081019061184d9190611850565b50565b5b808211156117945760008155600101611851565b80356001600160a01b038116811461187c57600080fd5b919050565b60006020828403121561189357600080fd5b61189c82611865565b9392505050565b634e487b7160e01b600052604160045260246000fd5b600082601f8301126118ca57600080fd5b813567ffffffffffffffff808211156118e5576118e56118a3565b604051601f8301601f19908116603f0116810190828211818310171561190d5761190d6118a3565b8160405283815286602085880101111561192657600080fd5b836020870160208301376000602085830101528094505050505092915050565b60006020828403121561195857600080fd5b813567ffffffffffffffff81111561196f57600080fd5b61197b848285016118b9565b949350505050565b60005b8381101561199e578181015183820152602001611986565b8381111561162e5750506000910152565b600081518084526119c7816020860160208601611983565b601f01601f19169290920160200192915050565b60006101208083526119ef8184018d6119af565b90508281036020840152611a03818c6119af565b90508281036040840152611a17818b6119af565b90508281036060840152611a2b818a6119af565b90508281036080840152611a3f81896119af565b905082810360a0840152611a5381886119af565b905082810360c0840152611a6781876119af565b905082810360e0840152611a7b81866119af565b9050828103610100840152611a9081856119af565b9c9b505050505050505050505050565b60006020808301818452808551808352604092508286019150828160051b87010184880160005b83811015611b4757603f19898403018552815160808151818652611aed828701826119af565b915050888201518582038a870152611b0582826119af565b9150508782015185820389870152611b1d82826119af565b6060938401516001600160a01b031696909301959095525094870194925090860190600101611ac7565b509098975050505050505050565b60008060008060808587031215611b6b57600080fd5b843567ffffffffffffffff80821115611b8357600080fd5b611b8f888389016118b9565b95506020870135915080821115611ba557600080fd5b611bb1888389016118b9565b94506040870135915080821115611bc757600080fd5b50611bd4878288016118b9565b925050611be360608601611865565b905092959194509250565b6000806000806000806000806000806101408b8d031215611c0e57600080fd5b8a3567ffffffffffffffff80821115611c2657600080fd5b611c328e838f016118b9565b9b5060208d0135915080821115611c4857600080fd5b611c548e838f016118b9565b9a5060408d0135915080821115611c6a57600080fd5b611c768e838f016118b9565b995060608d0135915080821115611c8c57600080fd5b611c988e838f016118b9565b985060808d0135915080821115611cae57600080fd5b611cba8e838f016118b9565b975060a08d0135915080821115611cd057600080fd5b611cdc8e838f016118b9565b965060c08d0135915080821115611cf257600080fd5b611cfe8e838f016118b9565b955060e08d0135915080821115611d1457600080fd5b611d208e838f016118b9565b94506101008d0135915080821115611d3757600080fd5b50611d448d828e016118b9565b925050611d546101208c01611865565b90509295989b9194979a5092959850565b6020815260008251610120806020850152611d846101408501836119af565b91506020850151601f1980868503016040870152611da284836119af565b93506040870151915080868503016060870152611dbf84836119af565b93506060870151915080868503016080870152611ddc84836119af565b935060808701519150808685030160a0870152611df984836119af565b935060a08701519150808685030160c0870152611e1684836119af565b935060c08701519150808685030160e0870152611e3384836119af565b935060e08701519150610100818786030181880152611e5285846119af565b908801518782039092018488015293509050611e6e83826119af565b9695505050505050565b600080600060608486031215611e8d57600080fd5b833567ffffffffffffffff811115611ea457600080fd5b611eb0868287016118b9565b935050611ebf60208501611865565b9150611ecd60408501611865565b90509250925092565b600181811c90821680611eea57607f821691505b60208210811415611f0b57634e487b7160e01b600052602260045260246000fd5b50919050565b6020808252601f908201527f4f6e6c79206f776e65722063616e20656e74657220686f73706974616c496400604082015260600190565b60008251611f5a818460208701611983565b9190910192915050565b634e487b7160e01b600052603260045260246000fd5b600080835481600182811c915080831680611f9657607f831692505b6020808410821415611fb657634e487b7160e01b86526022600452602486fd5b818015611fca5760018114611fdb57612008565b60ff19861689528489019650612008565b60008a81526020902060005b868110156120005781548b820152908501908301611fe7565b505084890196505b509498975050505050505050565b634e487b7160e01b600052601160045260246000fd5b60008282101561203e5761203e612016565b500390565b634e487b7160e01b600052603160045260246000fd5b600060001982141561206d5761206d612016565b506001019056fea2646970667358221220249e9939e1ce11efdda8784f13d3ae06d6434fcb9246a7a0f7f7f199030dd2d964736f6c63430008090033",
  "linkReferences": {},
  "deployedLinkReferences": {}
}